:020000040800F2
:10000000A80B00209D010008252600087B1F000882
:1000100021260008A902000839300008000000006D
:100020000000000000000000000000006B27000836
:10003000B70300080000000069270008ED2700084A
:10004000B7010008B7010008B7010008B7010008B0
:10005000B7010008B7010008B7010008B7010008A0
:10006000B7010008B7010008B7010008B701000890
:10007000B7010008B7010008B7010008B701000880
:10008000B7010008B7010008B7010008B701000870
:10009000B7010008B7010008B7010008B701000860
:1000A000B7010008B7010008B7010008B701000850
:1000B000B7010008B7010008B7010008B701000840
:1000C000B7010008B7010008B7010008B701000830
:1000D000B7010008D12F0008B7010008B7010008D8
:1000E000B7010008B7010008B7010008B701000810
:1000F000B7010008B7010008B7010008B701000800
:10010000B7010008B7010008B7010008B7010008EF
:10011000B7010008B7010008B7010008B7010008DF
:10012000B7010008B7010008AD020008B7010008D8
:10013000B7010008B7010008B7010008B7010008BF
:10014000B7010008B7010008B7010008B7010008AF
:10015000B7010008B7010008BD020008B701000898
:10016000B7010008B7010008B7010008B70100088F
:10017000B7010008B7010008B7010008000000003F
:10018000B7010008B7010008DFF80CD000F07AF8DA
:10019000004800475D300008A80B00200648804753
:1001A00006480047FEE7FEE7FEE7FEE7FEE7FEE75C
:1001B000FEE7FEE7FEE7FEE7A92800088901000840
:1001C0002DE9F05F0546002092469B46884606468C
:1001D000814640241BE0284641464746224600F01F
:1001E00041F853465A46C01A914110D31146184659
:1001F000224600F028F82D1A67EB01084F462246E8
:100200000120002100F01FF817EB00094E41201ECD
:10021000A4F10104DFDC484631462A464346BDE8E6
:10022000F09FD2B201E000F8012B491EFBD27047CB
:100230000022F6E710B513460A4604461946FFF7B2
:10024000F0FF204610BD202A04DB203A00FA02F11C
:10025000002070479140C2F1200320FA03F31943B4
:1002600090407047202A04DB203A21FA02F0002156
:10027000704721FA02F3D040C2F1200291400843B6
:1002800019467047064C074D06E0E06840F0010350
:1002900094E8070098471034AC42F6D3FFF778FF94
:1002A000C0300008E030000800BFFEE710B502488B
:1002B00000F0E8F810BD0000E802002010B5024888
:1002C00000F0E0F810BD00004803002001680A4B70
:1002D000CAB2103AA3FB02321209084B9B5CC365F9
:1002E000032A04D96FF30901091D816502E06FF348
:1002F00009018165806D7047ABAAAAAAB8300008D1
:10030000014600208A6A8B69002B0FD0B3F5005F8D
:100310001DD08AB3012A30D0022A2ED0032A04D15C
:10032000C96A11F0807F00D0012070471AB1012AFC
:1003300007D0022AF9D1C96A11F0807FF5D00120D7
:100340007047C96AB1F1C07FFAD1012070475AB134
:10035000012A0BD0022A07D0032AF7D1C96AB1F1CA
:10036000C07FF3D10120704701207047C96A11F0A6
:10037000807FFAD001207047FFE70120704710B45A
:10038000D0F800C0DCF8004024F48024CCF8004011
:10039000D0F800C0CCF804308368402B05D0036847
:1003A00099600068C26010BC704703689A6000687A
:1003B000C16010BC7047704700BFFEE72DE9F041F7
:1003C0000446A66D00F020FB054694F83500002792
:1003D000022806D08020606584F834700120BDE8D2
:1003E000F0812068016821F01601016020684169F0
:1003F00021F080014161206C08B9A06C20B1206817
:10040000016821F0080101602068016821F0010104
:1004100001602068006810F0010F12D000F0F4FABB
:10042000401B052808D920206065032084F835008A
:1004300084F83470BDE8F0812068006810F0010F86
:10044000ECD194F85C003F2101FA00F0B06001208B
:1004500084F8350084F834700020BDE8F08190F80D
:100460003510022903D08021416501207047052104
:1004700080F835100068016821F00101016000205A
:10048000704700002DE9F84304464FF00008CDF80E
:10049000008076484FF416510068B0FBF1F7A56D67
:1004A0002E6894F85C00082101FA00F0304211D067
:1004B0002068026812F0040F0CD0026822F00402D7
:1004C000026094F85C0001FA00F0A860606D40F0F2
:1004D0000100606594F85C004FF0010909FA00F032
:1004E000304209D02168496911F0800F04D0A8601A
:1004F000606D40F00200606594F85C100420884054
:10050000304209D02168096811F0020F04D0A860B8
:10051000606D40F00400606594F85C101020884025
:10052000304224D02168096811F0080F1FD0A8605C
:100530002068016811F4802F0DD0006810F4002F9E
:1005400004D0A16C99B12046884710E0216C71B1AC
:10055000204688470BE0016811F4807F03D10168D1
:1005600021F008010160216C09B12046884794F808
:100570005C1020208840304251D02168096811F079
:10058000100F4CD0A86094F8350005280DD02068D5
:10059000016811F4802F32D0006810F4002F29D0A8
:1005A000E16B59B32046884739E02068016821F0A3
:1005B000160101602068416921F080014161206CD1
:1005C00008B9A06C20B12068016821F00801016021
:1005D00094F85C003F2101FA00F0A86084F835909F
:1005E00084F83480216D00293ED001B02046BDE85A
:1005F000F0430847616C09B1204688470FE0016865
:1006000011F4807F07D1016821F01001016084F8A6
:10061000359084F83480E16B09B120468847606DDD
:10062000002821D0606D10F0010F15D0052084F84E
:1006300035002068016821F0010101600098401C2C
:100640000090B84204D82068006810F0010FF5D17E
:1006500084F8359084F83480E16C002904D001B02E
:100660002046BDE8F0430847BDE8F88304000020B9
:100670002DE9F041044600F0C7F90546DCB102203F
:1006800084F83500002684F834602068016821F081
:10069000010101602068006810F0010F13D000F024
:1006A000B3F9401B052809D920206065032084F890
:1006B0003500BDE8F0810120BDE8F08120680068C8
:1006C00010F0010FEBD121680868234A1040A3689D
:1006D0006268D4F810C01A43E36843EA0C031A4373
:1006E00063691A43A3691A43E3691A43236A1A43E5
:1006F0001043626A042A03D1236BE26A1A4310434F
:1007000008602068406920F00701606A40EA01053E
:10071000012704280ED1A06A0543E06A50B12046A3
:10072000FFF7EEFD30B14020606584F835700120A0
:10073000BDE8F081206845612046FFF7C7FD94F8C9
:100740005C103F2202FA01F18160666584F8357021
:100750000020BDE8F08100003F8010F070B5044635
:100760000025A66D94F8340001280DD0012084F8EE
:10077000340094F835C00020BCF1010F06D084F895
:1007800034000225284670BD022070BD4FF0020CD7
:1007900084F835C060652046FFF7F1FD94F85C00F1
:1007A0003F2101FA00F0B0602068016841F01601B5
:1007B0000160206C20B12068016841F008010160EF
:1007C0002068016841F001010160DBE72DE9F84F85
:1007D0000022DFF818A2DFF810924FF0010E032775
:1007E0004FF00F08AAF1040B0EFA02FC0B6803EAA3
:1007F0000C0363457DD10C7904F00304012C01D076
:10080000022C14D18568540007FA04F6B543CE686B
:1008100006FA04F42C438460446824EA0C0C0C7936
:10082000C4F30014944044EA0C0CC0F804C0D1F89E
:1008300004C037EA0C0C0CD0C4684FEA420C07FA2B
:100840000CF5AC438D6805FA0CFC4CEA040CC0F8BE
:100850000CC091F804C00CF0030CBCF1020F12D1D3
:100860004FEAD20C00EB8C04256A4FEA427C4FEA37
:10087000DC6C08FA0CF6B5430E6906FA0CFC4CEA7F
:10088000050CC4F820C004684FEA420C07FA0CF5C6
:10089000AC430D7905F0030505FA0CFC4CEA040C99
:1008A000C0F800C0D1F804C01CF4403F7DD0D9F896
:1008B00000C04CF4804CC9F800C0D9F800C00CF45A
:1008C000804CCDF800C022F0030C0CF1804505F5FA
:1008D0009835D5F808C89407240F08FA04F62CEACE
:1008E0000606A0F1804CBCF5003C64D0A0F1804C21
:1008F00000E05AE0BCF5013C60D0A0F1804CBCF5B2
:10090000023C5ED0A0F1804CBCF5033C5CD0A0F171
:10091000804CBCF5043C5AD0A0F1804CBCF5053CA1
:1009200058D0A0F1804CBCF5063C56D0A0F1804CCC
:10093000BCF5073C54D04FF0080C0CFA04FC4CEA10
:10094000060CC5F808C8DAF800C02CEA030C4C689D
:1009500014F4801F01D04CEA030CCAF800C0244CE8
:10096000D4F800C02CEA030C4D6815F4001F01D028
:100970004CEA030CC4F800C0DBF800C02CEA030CFE
:100980004C6814F4003F01D04CEA030CCBF800C0D3
:10099000184CD4F800C02CEA030C4D6815F4803FC5
:1009A00001D04CEA030CC4F800C0521C102AFFF41A
:1009B0001BAFBDE8F88F4FF0000CBEE74FF0010C05
:1009C000BBE74FF0020CB8E74FF0030CB5E74FF070
:1009D000040CB2E74FF0050CAFE74FF0060CACE7A4
:1009E0004FF0070CA9E7000044380240083C0140E2
:1009F0000C3C0140003C0140002A01D0816170475D
:100A00000904816170470000014880687047000058
:100A10000800002070B50446002C04D094F83D0076
:100A2000002510B106E0012070BD84F83C5020463E
:100A300000F076F9242084F83D002068016821F058
:100A4000010101602068016841F4004101602068F3
:100A5000016821F40041016000F046FB544B6168DD
:100A6000994203D85349884203D304E0524988424B
:100A700001D2012070BD5149B0FBF1F12268D2F8DA
:100A800004C02CF03F0C4CEA010CC2F804C06268B0
:100A90009A4201D84A1C07E04FF4967251434FF432
:100AA0007A72B1FBF2F14A1C2168D1F820C02CF017
:100AB0003F0C42EA0C020A626168994210D8490070
:100AC000401EB0FBF1F2521CC2F30B02042A01D209
:100AD000042026E0B0FBF1F0401CC0F30B0020E046
:100AE000A268002A50D001EBC10303EB0113A0F16F
:100AF000010CBCFBF3F35B1C43F480431B051B0D93
:100B00004AD0002A4AD001EBC10202EB0111401E7B
:100B1000B0FBF1F0401CC0F30B0040F4804040F407
:100B200000402168CA6922F0FF0222F44F421043BC
:100B3000C861216AE06901432068026822F0C002AE
:100B400011430160E168206901432068826822F056
:100B5000FF0222F4034211438160A16960690143ED
:100B60002068C26822F0FF021143C160206801685A
:100B700041F0010101602564202084F83D002563D7
:100B800084F83E50002070BD01EB4103A0F1010C40
:100B9000BCFBF3F35B1CB1E70120C2E701EB4101B1
:100BA000401EB0FBF1F0401CC0F30B00B7E70000A3
:100BB000A086010080841E0000093D0040420F0015
:100BC0002DE9F84F04468A46904699460A9FFFF75A
:100BD0001BFF064694F83D00202802D00220BDE805
:100BE000F88F192301224C492046009601F06DFA36
:100BF00010B10220BDE8F88F94F83C00012808D01D
:100C0000012084F83C002068016811F0010F03D036
:100C100006E00220BDE8F88F016841F001010160A3
:100C20002068016821F400610160212084F83D0002
:100C3000102084F83E0000252564C4F82480A4F820
:100C40002A90608D20853548E06233463A46514609
:100C5000204601F0ADF910B10120BDE8F88F206801
:100C6000416980690090208D002846D0324639467F
:100C7000204601F015FB50B1206C042804D12068F7
:100C8000016841F4007101600120BDE8F88F606ADD
:100C9000216800780861606A00F1010CC4F824C082
:100CA000608D401E6085208D401E80B220852268A8
:100CB000516911F0040F0CD058B19CF8000010617C
:100CC000606A401C6062608D401E6085208D401E01
:100CD000208532463946204601F0C4F950B1206CD7
:100CE000042804D12068016841F4007101600120EA
:100CF000BDE8F88F208D0028B8D12068016841F444
:100D000000710160202084F83D0084F83E5084F892
:100D10003C500020BDE8F88F020010000000FFFFEB
:100D200010B586B00446142101A8FFF781FA2A49BC
:100D3000206888424DD100BF0020009027480068FD
:100D400040F00400254908600846006800F00400EF
:100D5000009000BF00BF00BF002000900846006860
:100D600040F0010008600846006800F001000090B3
:100D700000BF00BF48150190122002900020039090
:100D8000032004900420059001A91548FFF71EFDDB
:100D90004FF48070019012200290002003900320F5
:100DA00004900420059001A90E48FFF70FFD00BF35
:100DB0000020009009481030006840F40000074906
:100DC000103108600846006800F40000009000BF81
:100DD00000BF06B010BD0000005C0040303802408B
:100DE0000008024000000240024881680278114475
:100DF000816070470800002010B50B48016841F47D
:100E000000710160016841F480610160016841F492
:100E100080710160032000F091F8002000F006F8D6
:100E200000F026F8002010BD003C024070B50446DA
:100E30000D4D4FF47A712878B1FBF0F00B49096839
:100E4000B1FBF0F000F0E8FB08B1012070BD102C00
:100E500007D200222146501E00F03CF86C600020B2
:100E600070BD012070BD00000800002004000020BB
:100E700008B500BF002000900E48006840F4804094
:100E80000C4908600846006800F48040009000BFEC
:100E900000BF00BF00200090081F006840F0805095
:100EA000091F08600846006800F08050009000BFED
:100EB00000BF08BD4438024000280ADB00F01F01D3
:100EC000012202FA01F14009800000F1E020C0F89F
:100ED0000011704710B4184B1B68C3F30223C3F111
:100EE000070CBCF1040F01D94FF0040C1C1D072C9A
:100EF00001D2002300E0DB1E012404FA0CFCACF15B
:100F0000010C0CEA0101994004FA03F35B1E1A403C
:100F10001143002806DB00F1E020090180F80014ED
:100F200010BC704700F00F0000F1E020090180F8CC
:100F3000141D10BC704700000CED00E000F007002D
:100F4000064A11684FF6FF03194041EA002040F0BD
:100F5000FD7040F080601060704700000CED00E014
:100F60002DE9F04704460D46002C13D0DFF85491CC
:100F7000D9F80000EFB200F00700A8420DD289F8BE
:100F80000070D9F8000000F00700A84205D0012049
:100F9000BDE8F0870120BDE8F08720684A4E10F0D8
:100FA000020F14D010F0040F03D0306840F4E0506A
:100FB0003060207810F0080F03D0306840F46040B3
:100FC00030603068A16820F0F0000843306020787D
:100FD00010F0010F3ED060683C49012808D002287B
:100FE0000DD003280BD0096811F0020F28D00AE0B9
:100FF000096811F4003F06D10120BDE8F0870968B7
:1010000011F0007F19D0316821F0030108433060EE
:10101000FFF7FAFC80463068616800F00C00B0EB26
:10102000810F17D041F2883AFFF7EEFCA0EB0800E1
:10103000504508D90320BDE8F0870120BDE8F087BE
:101040000120BDE8F0873068616800F00C00B0EB6B
:10105000810FE9D1D9F8000000F00700A8420AD9B1
:1010600089F80070D9F8000000F00700A84202D00B
:101070000120BDE8F087207810F0040F05D030681B
:10108000E16820F4E05008433060207810F0080F49
:1010900006D03068216920F4604040EAC100306029
:1010A00000F042F831680A4AC1F30311515CC840AC
:1010B0000849086008480068FFF7B8FE0020BDE84E
:1010C000F0870000003C024008380240003802402F
:1010D000A0300008040000200C0000200148006837
:1010E000704700000400002000B5FFF7F7FF044937
:1010F0000968044AC1F38221515CC84000BD000068
:1011000008380240B030000800B5FFF7E7FF044997
:101110000968044AC1F34231515CC84000BD000077
:1011200008380240B030000810B51748006810F0C9
:101130000C01164816D04310042912D0082911D1E9
:10114000134C216801F03F02216811F4800F0AD08E
:101150002068C0F38810A0FB03010023FFF730F8DC
:1011600009E0184610BD21680023C1F38811A1FBD6
:101170000001FFF725F82168C1F30141491C49002E
:10118000B0FBF1F010BD0000083802400024F4006C
:10119000043802402DE9F84F0446002C12D0207884
:1011A000FB4E10F0010FA6F1040563D0301D01685D
:1011B00001F00C0104290CD0006800F00C00082894
:1011C00003D010E00120BDE8F88F306810F4800FE4
:1011D00009D0286810F4003F4CD06068002849D13D
:1011E0000120BDE8F88F6068B0F5803F14D0B0F5FD
:1011F000A02F16D0286820F480302860286820F4BA
:1012000080202860606810B3FFF7FEFB074628685F
:1012100010F4003F0ED02DE0286840F480302860A4
:10122000F0E7286840F480202860286840F4803087
:101230002860E7E7FFF7E8FBC01B642802D903201A
:10124000BDE8F88F286810F4003FF3D012E0FFF7F4
:10125000DBFB0746286810F4003F0BD0FFF7D4FBF8
:10126000C01B642802D90320BDE8F88F286810F459
:10127000003FF3D12078C74F10F0020F4FF0000964
:1012800057D0C548016811F00C0F14D0006800F069
:101290000C00082803D1306810F4800F0BD0E068F0
:1012A00080B301203860FFF7AFFB8046286810F05C
:1012B000020F12D01EE0286810F0020F05D0E0687F
:1012C000012802D00120BDE8F88F2868216920F0AC
:1012D000F80040EAC10028602BE0FFF795FBA0EB87
:1012E0000800022802D90320BDE8F88F286810F012
:1012F000020FF2D02868216920F0F80040EAC1000E
:10130000286016E0FFE7C7F80090FFF77DFB8046F6
:10131000286810F0020F0CD0FFF776FBA0EB080056
:10132000022802D90320BDE8F88F286810F0020FC8
:10133000F2D1207810F0080F35D09848DFF860A27D
:101340006169C1B101210160FFF75EFB8046DAF8F7
:10135000000010F0020F26D1FFF756FBA0EB0800AB
:10136000022802D90320BDE8F88FDAF8000010F057
:10137000020FF1D017E0C0F80090FFF745FB804660
:10138000DAF8000010F0020F0DD0FFF73DFBA0EBE4
:101390000800022802D90320BDE8F88FDAF800001F
:1013A00010F0020FF1D1207810F0040F71D04FF03F
:1013B00000087C48006810F0805F0AD17948016815
:1013C00041F080510160006800F0805000904FF0C3
:1013D0000108DFF8D4B1DBF8000010F4807F1BD1E6
:1013E000DBF8000040F48070CBF80000FFF70CFB46
:1013F0008246DBF8000010F4807F0DD1FFF704FB7C
:10140000A0EB0A00022802D90320BDE8F88FDBF820
:10141000000010F4807FF1D0A068DFF890B10128BF
:1014200018D005281DD0DBF8000020F00100CBF813
:101430000000DBF8000020F00400CBF80000A068FA
:1014400040B3FFF7E1FA8246DBF8000010F0020F2C
:1014500014D03EE0DBF8000040F00100CBF80000C3
:10146000EDE7DBF8000040F00400CBF80000DBF80B
:10147000000040F00100CBF80000E0E7FFF7C4FAFD
:10148000A0EB0A0141F28830814204D90320BDE873
:10149000F88F26E005E0DBF8000010F0020FEDD039
:1014A00017E0FFF7B1FA8246DBF8000010F0020FF8
:1014B0000FD0FFF7A9FAA0EB0A0141F28830814270
:1014C00002D90320BDE8F88FDBF8000010F0020F0E
:1014D000EFD1B8F1010F04D13248016821F08051F9
:1014E0000160A069F0B32C4909684FF0FF3801F0A2
:1014F0000C01082966D0022810D0C7F86090FFF7C9
:1015000083FA0446286810F0007F2BD0FFF77CFA9E
:10151000001B022851D90320BDE8F88FC7F860905E
:10152000FFF772FA8146286810F0007F0CD0FFF7B1
:101530006BFAA0EB0900022802D90320BDE8F88F5E
:10154000286810F0007FF2D1216AE069A26A08439E
:10155000616A08EB5202890141EA0241084394F8AA
:101560002C1000E055E040EA016030600120386650
:10157000FFF74AFA0446286810F0007F49D1FFF7C8
:1015800043FA001B022813D90320BDE8F88F00009E
:10159000043802400000474208380240800E4742AB
:1015A00074380240403802400070004070380240F9
:1015B000286810F0007FE2D02BE0286810F0007F50
:1015C000A4D126E0012822D03068E26900F480012D
:1015D00091421AD1226A00F03F01914215D147F69B
:1015E000C071626A0140B1EB821F0ED1A26A00F4A1
:1015F000403108EB5202B1EB024F06D194F82C10A7
:1016000000F07060B0EB016F03D00120BDE7012056
:10161000BBE70020B9E70000401EB0F1807F01D396
:10162000012070474FF0E0214861044AF02010701B
:1016300000208861072008610020704723ED00E04A
:1016400090F83C20012A2CD0012280F83C20CA6866
:101650000023D1F808C022F4407242EA0C02D1F80B
:1016600004C022F4806242EA0C02D1F800C022F4E5
:10167000006242EA0C02D1F810C022F4805242EA21
:101680000C02D1F814C022F4005242EA0C02C969DB
:1016900022F4804211430268516480F83C300020FB
:1016A00070470220704730B490F83C20012A44D0A3
:1016B000012480F83C40022280F83D200268D2F8E4
:1016C00004C093682CF0700C0D6845EA0C0CC2F84D
:1016D00004C00268A2F1804CBCF5803C20D0B2F17D
:1016E000804F1DD0A2F1804CBCF5806C18D0A2F1C7
:1016F000804CBCF5006C13D0A2F1804CBCF5406C62
:101700000ED0A2F1804CBCF5823C09D0A2F1804CF5
:10171000BCF5A03C04D0A2F1804CBCF5C05C04D167
:1017200023F0800349681943916080F83D4000210F
:1017300080F83C1030BC0020704730BC022070475D
:1017400010B586B00446142101A8FEF771FD1249B8
:10175000206888421DD100BF002000900F4800681B
:1017600040F010000D4908600846006800F01000C5
:10177000009000BF00BF4FF428500190022002905B
:101780000020039004900120059001A90448FFF770
:101790001DF806B010BD00000000014030380240C6
:1017A0000010024070B504460D46002694F83C0037
:1017B00001280FD0012084F83C006AB1042A1FD010
:1017C000082A32D00C2A44D00126002084F83C009C
:1017D000304670BD022070BD2946206801F0ECF84B
:1017E0002068816941F0080181612068816921F0E8
:1017F00004018161206881692A6911438161E4E7FC
:101800002946206801F010F92068816941F40061DF
:1018100081612068816921F480618161206881692A
:101820002A6941EA02218161CFE72946206801F057
:1018300037F92068C16941F00801C1612068C169B8
:1018400021F00401C1612068C1692A691143C161A5
:10185000BBE72946206801F05FF92068C16941F4BF
:101860000061C1612068C16921F48061C1612068A3
:10187000C1692A6941EA0221C161A6E710B504469F
:10188000002C03D094F83D0010B107E0012010BDFA
:10189000002084F83C00204600F01EF8022084F866
:1018A0003D00211D206801F00DF8012084F846005C
:1018B00084F83E0084F83F0084F8400084F841003A
:1018C00084F8420084F8430084F8440084F845001A
:1018D00084F83D00002010BD08B50A4A0168914215
:1018E0000FD100BF002100910749096841F00101B3
:1018F000054A11601146096801F00101009100BF1D
:1019000000BF08BD000001404438024010B5044645
:10191000002909D004290AD008290BD094F84100E5
:1019200001280AD0012010BD94F83E00F8E794F891
:101930003F00F5E794F84000F2E70220D9B304290C
:1019400047D0082948D084F841000122206801F0DE
:1019500023F8234A20682349904201D0884203D1CA
:10196000436C43F4004343642068904224D0B0F1B8
:10197000804F21D0A0F18042B2F580621CD0A0F14E
:101980008042B2F5006217D0A0F18042B2F5406209
:1019900012D0884210D0A0F18041B1F5A0310BD017
:1019A000A0F18041B1F5C05106D0016841F00101BC
:1019B0000160002010BD09E0816801F007010629DF
:1019C000F7D0016841F001010160F2E784F83E00C0
:1019D000BBE784F83F00B8E784F84000B5E70000B3
:1019E0000000014000040140704710B50446206823
:1019F0004069C0F3C01094F84110212911D180B181
:101A00002068143050E8001F21F0800140E80012E7
:101A1000002AF5D1A06B08B1FEF7D0FC204601F0FA
:101A20005EF920684069C0F3801094F842102229C2
:101A300011D180B12068143050E8001F21F040011E
:101A400040E80012002AF5D1E06B08B1FEF7B6FCC1
:101A5000204601F010F9002010BD7047F8B504468B
:101A600022681068D168536900F00F0CBCF1000FB8
:101A70000AD110F0200F07D011F0200F04D020461B
:101A8000BDE8F84001F039B90025BCF1000F75D070
:101A900003F0010C01F490765CEA06066ED010F0BB
:101AA000010F06D011F4807F03D0626C42F0010276
:101AB000626410F0040F06D013F0010F03D0626CC3
:101AC00042F00202626410F0020F06D013F0010F20
:101AD00003D0626C42F00402626410F0080F08D078
:101AE00001F0200252EA0C0203D0626C42F00802BC
:101AF0006264626C002A35D010F0200F05D011F01E
:101B0000200F02D0204601F0F8F820684069C0F3A9
:101B10008010616C11F0080F00D148B3204601F02D
:101B2000AAF82068406910F0400F1CD020681430DB
:101B300050E8001F21F0400140E80012002AF5D1D2
:101B4000E06B60B164490165E06BFEF788FC00283A
:101B500008D0E06B016D01B0BDE8F04008472046B9
:101B6000FFF77BFFF8BD2046FFF777FFF8BD05E0E4
:101B7000FFE72046FFF771FF6564F8BD236B012B7B
:101B80007ED110F0100F7BD011F0100F78D01068BC
:101B90005068009050694FF0200310F0400F4FF054
:101BA000020650D0E26B1068406880B2F0B3A18D9D
:101BB00081423CD9E085D069B0F5807F2DD0206886
:101BC0000C3050E8001F21F4807140E80012002A18
:101BD000F5D12068143050E8001F21F0010140E8E1
:101BE0000012002AF5D12068143050E8001F21F0BF
:101BF000400140E80012002AF5D184F84230256304
:101C000020680C3050E8001F21F0100140E800125D
:101C1000002AF5D1E06BFEF7D1FB6663A08DE18D64
:101C2000401A81B22046FFF7DFFEF8BDFFE7A18D25
:101C30008142FAD1D069B0F5807FF6D16663204643
:101C4000FFF7D2FEF8BDA08DE18D401A81B2E08D84
:101C50000028F7D00029F5D020680C3050E8002F7C
:101C600022F4907240E8002CBCF1000FF4D12068FF
:101C7000143050E8002F22F0010240E8002C00E070
:101C800014E0BCF1000FF2D184F8423025632068E3
:101C90000C3050E8002F22F0100240E80023002B07
:101CA000F5D166632046FFF79FFEF8BD10F0800F68
:101CB00007D011F0800F04D02046BDE8F84001F0B5
:101CC00057B910F0400FF0D011F0400FEDD0204682
:101CD000BDE8F84000F0F6BF712B000870B504466F
:101CE000002C04D094F84100002510B106E001203A
:101CF00070BD84F84050204600F024F8242084F879
:101D000041002068C16821F40051C160204601F003
:101D100059F82068016921F4904101612068416906
:101D200021F02A0141612068C16841F40051C1607D
:101D30006564202084F8410084F842006563002037
:101D400070BD000010B586B00446142101A8FEF74E
:101D50006FFA7849206888427CD100BF002000904B
:101D60007548006840F01000734908600846006834
:101D700000F01000009000BF00BF00BF00200090E6
:101D80006D481438006840F002006B49143908604F
:101D90000846006800F00200009000BF00BFC020AD
:101DA000019002200290012003900320049007205C
:101DB000059001A96148FEF709FD61486149086085
:101DC0004FF00060486000215E488160C1604FF4C0
:101DD000806101610021416181614FF48071C161C5
:101DE0004902016200214162FEF742FC08B1FEF7A0
:101DF000E3FA00BF5348E063846300BF5048783083
:101E0000514908604FF00060486040214E488160B1
:101E10000021C1604FF48061016100214161816155
:101E2000C1614FF40031016200214162FEF720FCE4
:101E300008B1FEF7C1FA00BF4348A063846300BF46
:101E4000002211462520FFF745F82520FFF734F83A
:101E50006EE0FFE73D492068884232D100BF002094
:101E600000903548001F006840F400303249091FD7
:101E700008600846006800F40030009000BF00BF12
:101E800000BF002000902C481438006840F001008A
:101E90002949143908600846006800F001000090E4
:101EA00000BF00BF0C200190022002900020039090
:101EB000032004900720059001A92548FEF786FC21
:101EC00036E024492068884232D100BF00200090CB
:101ED0001948001F006840F480201749091F086056
:101EE0000846006800F48020009000BF00BF00BFDB
:101EF0000020009010481438006840F002000E499D
:101F0000143908600846006800F00200009000BF25
:101F100000BF4FF440600190022002900020039027
:101F2000032004900720059001A90448FEF74EFC09
:101F300006B010BD001001404438024000040240C9
:101F400040640240E80200204803002000440040B2
:101F5000000002400048004090F84230202B01D0A1
:101F60000220704721B11AB10023036300F0A8BF1B
:101F70000120704770477047704700BFFEE7016857
:101F80004A6912F4806F11D06FF480624A610021B7
:101F90000163202280F83D2080F83E10026C42F060
:101FA0000402026480F83C10012070470020704752
:101FB000F8B504460D4617461E46E06A082808D0C4
:101FC000012806D010F5803F03D0206B122806D0E0
:101FD0000AE02068016841F48071016004E0206833
:101FE000016841F4807101603B4600224FF001110D
:101FF0002046009600F069F848B12068006810F4A7
:10200000807F02D04FF4007020640320F8BD206967
:10201000B0F5804F0FD005F44070F02141EAD010A8
:102020002168086133463A460C49204600F0C2F860
:1020300030B10120F8BD216805F0FE00086102E022
:102040002168E8B2086133463A460549204600F067
:10205000B1F808B10120F8BD0020F8BD080001006A
:102060000200010070B504460D461646206840691E
:1020700010F0040F18D12046FFF781FF08B10120AE
:1020800070BDB5F1FF3F0AD0FEF7BEFC801BA84231
:1020900000D825B92068406910F0040F06D02068E8
:1020A000406910F0040FE6D0002070BD00202063CE
:1020B000202184F83D1084F83E00216C41F020017D
:1020C000216484F83C00012070BD2DE9F0470446EE
:1020D000DDF820900D4617461E46C5F307482068D8
:1020E000B8F1010F13D0806925EA00000004000C4C
:1020F00017D00020B8424DD1B6F1FF3F3DD0FEF7DA
:1021000083FCA0EB0900B0420DD866B135E0406910
:1021100025EA00000004000C01D00020EAE70120BD
:10212000E8E70120E6E7B8F1010F19D020688069DF
:1021300025EA00000004000C1DD00020B8421CD18C
:1021400000202063202184F83D1084F83E00216C9B
:1021500041F02001216484F83C000120BDE8F087B3
:102160002068406925EA00000004000C01D000202E
:10217000E4E70120E2E70120E0E7B8F1010F0CD02D
:102180002068806925EA00000004000C10D00020BF
:10219000B842B1D00020BDE8F0872068406925EA48
:1021A00000000004000C01D00020F1E70120EFE75F
:1021B0000120EDE72DE9F04704460D461646984606
:1021C000C5F307472068012F26D0806925EA000063
:1021D0000004000C59D04FF000094FF0200A20688D
:1021E000406910F4806F1ED02068016841F40071CE
:1021F000016021686FF480604861C4F8309084F811
:102200003DA084F83E90206C40F00400206484F8E7
:102210003C900120BDE8F087406925EA00000004F9
:10222000000C32D0D7E7B6F1FF3F25D0FEF7ECFB2C
:10223000A0EB0800B04200D8F6B9012F15D02068F5
:10224000806925EA00000004000C15D0C4F8309025
:1022500084F83DA084F83E90206C40F0200020647B
:1022600084F83C900120BDE8F0872068406925EAA9
:1022700000000004000CE9D1012F09D0206880691A
:1022800025EA00000004000CA9D10020BDE8F08779
:102290002068406925EA00000004000C9FD1F4E7A3
:1022A00070B504460D4616462068406910F0800F50
:1022B00018D12046FFF763FE08B1012070BDB5F1CB
:1022C000FF3F0AD0FEF7A0FB801BA84200D825B92B
:1022D0002068406910F0800F06D02068406910F037
:1022E000800FE6D0002070BD00202063202184F8FC
:1022F0003D1084F83E00216C41F02001216484F8F7
:102300003C00012070BD000008B500BF0020009017
:102310001D48006840F480001B49086008460068BA
:1023200000F48000009000BF00BF18481849086002
:10233000002048608021164881608900C160490002
:102340000161002141618161C16101620421416239
:10235000032181620021C1620163FEF789F908B19E
:10236000FEF72AF8002211463A20FEF7B3FD3A2084
:10237000FEF7A2FD002211464620FEF7ABFD4620E7
:10238000FEF79AFD08BD0000303802402864024084
:102390001400002000B587B0142102A8FDF748FF03
:1023A00000BF002001902F48006840F004002D4934
:1023B00008600846006800F00400019000BF00BFFC
:1023C00000BF002001900846006840F080000860CF
:1023D0000846006800F08000019000BF00BF00BF09
:1023E000002001900846006840F00100086008469F
:1023F000006800F00100019000BF00BF00BF002096
:1024000001900846006840F0100008600846006827
:1024100000F01000019000BF00BF00BF002001903D
:102420000846006840F0020008600846006800F0B6
:102430000200019000BF00BF00224FF440710A4823
:10244000FEF7DAFA4FF4407002901120039000205A
:1024500004900220059002A90348FEF7B7F907B0DF
:1024600000BD0000303802400004024010B50B48A7
:102470000B4908600B484860002109488160C16031
:102480004FF480410161002141618161C1610162BC
:10249000FEF7C0FA08B1FDF78FFF10BD005C0040E9
:1024A00074000020801A060000B591B000200F9043
:1024B00010901C2108A8FDF7BBFE20216846FDF7FF
:1024C000B7FE2B482B490860A72048600021294807
:1024D000816044F61F61C16000210161416180217A
:1024E0008161FFF7CBF908B1FDF766FF00200F907F
:1024F00010900FA91F48FFF7D6F808B1FDF75CFF51
:1025000060200890002009900A900B900C900D908C
:102510000E90002208A91748FFF744F908B1FDF70B
:102520004BFF042208A91348FFF73CF908B1FDF757
:1025300043FF082208A90F48FFF734F908B1FDF757
:102540003BFF0020009001900290039004904FF414
:10255000005005900020079069460648FFF770F884
:1025600008B1FDF729FF0348FFF7EAF811B000BDF5
:1025700000000140C800002010B50B480B4908605E
:102580004FF4E1304860002108488160C16001617A
:102590000C21416100218161C161FFF79FFB08B1FE
:1025A000FDF70AFF10BD00000010014010020020DE
:1025B00010B50B480B4908604FF4E130486000212A
:1025C00008488160C16001610C2141610021816185
:1025D000C161FFF783FB08B1FDF7EEFE10BD0000FF
:1025E000004400405802002010B50B480B49086019
:1025F0004FF4E1304860002108488160C16001610A
:102600000C21416100218161C161FFF767FB08B1C5
:10261000FDF7D2FE10BD000000480040A0020020DF
:1026200000BFFEE7704770B500240EE00021204691
:1026300000F063F8002504E0002000F081F8681C39
:10264000C5B2802DF8DB601CC4B2082CEEDB70BD77
:1026500070B5002406E0002500E06D1CB5F57A7F1A
:10266000FBD3641CB4F57A7FF5D3AE2000F056F8A6
:10267000D52000F053F8802000F050F8A82000F09A
:102680004DF83F2000F04AF8D32000F047F8002032
:1026900000F044F8402000F041F8A12000F03EF89E
:1026A000C82000F03BF8DA2000F038F8122000F0E3
:1026B00035F8812000F032F8CF2000F02FF8D92033
:1026C00000F02CF8F12000F029F8DB2000F026F8CB
:1026D000302000F023F8A42000F020F8A62000F01D
:1026E0001DF88D2000F01AF8142000F017F8AF2024
:1026F00000F014F8FFF797FF70BD70B505460C4663
:1027000045F0B00000F00AF8102141EA141000F082
:1027100005F804F00F0000F001F870BD1CB5044688
:10272000002001908DF805406420022301AA782141
:1027300000900248FEF744FA1CBD0000740000201F
:102740001CB5044606A0006801908DF80540642081
:10275000022301AA782100900248FEF731FA1CBD3D
:10276000400000007400002070477047B5EEC00ABA
:10277000F1EE10FA04D2DFED100AB0EE600A0AE0C2
:10278000DFED0E0AB4EEE00AF1EE10FA03DDDFED44
:102790000B0AB0EE600ADFED090A80EE201ADFEDC9
:1027A000081ADFED080A41EE210AFCEEE00A10EEFD
:1027B000900A80B2704700000000000000008743CC
:1027C0000000FA440000FA4310B52DED028BB0EE84
:1027D000408AB0EE480AFFF7C9FF04460248006885
:1027E0004463BDEC028B10BDC800002010B5FEF79D
:1027F000FBFA10BD00B593B0302107A8FDF718FD16
:10280000142102A8FDF714FD00BF00200190244808
:10281000006840F08050224908600846006800F0D7
:102820008050019000BF00BF00BF002001901D48F4
:10283000006840F480401B4908600846006800F4C6
:102840008040019000BF00BF012007900004089065
:1028500002200D9041050E9104210F91A8211091A5
:10286000022111910421129107A8FEF793FC08B1EF
:10287000FDF7A2FD0F20029002200390002004909B
:102880004FF4A05005904FF480500690052102A807
:10289000FEF766FB08B1FDF78FFD13B000BD000029
:1028A00040380240007000400548006840F4700065
:1028B000034908604FF000600149803908607047A3
:1028C00088ED00E0F0B40268DFF8B8C02E4C2F4D60
:1028D0002F4E304B60450AD0B0F1804F07D0A04258
:1028E00005D0A84203D0B04201D0984203D122F0D3
:1028F00070024F683A43604528D0B0F1804F25D030
:10290000A04223D0A84221D0B0421FD098421DD06F
:10291000A0F18044B4F5A03418D0A0F18044B4F5FF
:10292000A23413D0A0F18044B4F5A4340ED0A0F1A9
:102930008044B4F5C05409D0A0F18044B4F5E0540B
:1029400004D0A0F18044B4F5005403D122F44072C5
:10295000CC6822434C6922F0800222438C68C46216
:102960000C688462604501D0984201D10969016315
:10297000016841F004010160012141610260F0BC85
:1029800070470000000001400004004000080040C3
:10299000000C00400004014001F01F0101238B40A6
:1029A000D0F820C02CEA03030362036A02FA01F1A3
:1029B000194301627047000070B4026A036A23F091
:1029C000010303624368D0F818C02CF0700C2CF09F
:1029D000030C0C6844EA0C0C22F002028C682243BF
:1029E0000F4C104DA04201D0A84205D122F00802A0
:1029F000CE68324322F00402A04201D0A84207D19F
:102A000023F4807323F400734C6923438C692343BC
:102A10004360C0F818C049684163026270BC7047E7
:102A2000000001400004014070B4026A036A23F010
:102A3000100303624368D0F818C02CF4E04C2CF467
:102A4000407C0C684CEA042C22F020028C6842EA9C
:102A50000412114C114DA04201D0A84206D122F01F
:102A60008002CE6842EA061222F04002A04201D063
:102A7000A84209D123F4806323F400634C6943EA3C
:102A800084038C6943EA84034360C0F818C0496832
:102A90008163026270BC7047000001400004014085
:102AA00070B4026A036A23F4807303624368D0F847
:102AB0001CC02CF0700C2CF0030C0C6844EA0C0CBD
:102AC00022F400728C6842EA0422114C114DA0429B
:102AD00001D0A84206D122F40062CE6842EA062262
:102AE00022F48062A04201D0A84209D123F480538D
:102AF00023F400534C6943EA04138C6943EA04133A
:102B00004360C0F81CC04968C163026270BC704772
:102B1000000001400004014010B4036A026A22F47C
:102B2000805202624268D0F81CC02CF4E04C2CF4B5
:102B3000407C0C684CEA042C23F400538C6843EA74
:102B40000433A0F18044B4F5803404D0A0F1804473
:102B5000B4F5823404D122F480424C6942EA8412F2
:102B60004260C0F81CC049680164036210BC704731
:102B700010B5806B0021C185FEF76FFF10BD70B5E9
:102B8000846B20684069C0F3C01094F841100025A0
:102B9000212904D118B1E584204600F0A0F820686E
:102BA0004069C0F3801094F84210222904D118B172
:102BB000E585204600F05FF8606C40F0100060642E
:102BC0002046FEF74AFF70BD10B50146886B0968C4
:102BD00009684FF0000311F4807F32D1C38501688A
:102BE0000C3151E8002F22F4807241E8002CBCF136
:102BF000000FF4D10168143151E8002F22F00102D6
:102C000041E8002CBCF1000FF4D10168143151E807
:102C1000002F22F0400241E8002CBCF1000FF4D15B
:102C2000202180F84210016B01290AD101680C3182
:102C300051E8002F22F0100241E8002CBCF1000FF7
:102C4000F4D14363016B012902D0FFF793F910BD62
:102C5000818DFEF7C9FE10BD10B5806B0121416367
:102C6000016B012902D0FFF786F910BD818D49085B
:102C7000FEF7BAFE10BD01680C3151E8002F22F4B6
:102C8000907241E80023002BF5D10168143151E81E
:102C9000002F22F0010241E80023002BF5D1016B47
:102CA000012909D101680C3151E8002F22F01002EE
:102CB00041E80023002BF5D1202180F842100021AB
:102CC0000163704710B50168CA6822F04002CA600B
:102CD000202180F84110FFF74FF9002010BD016856
:102CE0000C3151E8002F22F0C00241E80023002BF4
:102CF000F5D1202180F84110704708B590F84210B6
:102D0000222901D0022008BD8268B2F5805F01D17E
:102D1000016929B1816AB2F5805F1DD052B10BE023
:102D2000816A02685268C2F308020A80816A891CBB
:102D3000816209E002697AB10268526802F07F029A
:102D40000A70816A491C8162C18D491E0904090CFF
:102D5000C18505D0002008BD026852680A70F0E7FE
:102D60000168CA6822F02002CA600168CA6822F4B9
:102D70008072CA6001684A6922F001024A6120211A
:102D800080F8421000214163026B012A03D0FFF753
:102D9000F1F8002008BD016301680C3151E8002FF3
:102DA00022F0100241E80023002BF5D101680A68E7
:102DB00012F0100F02D00A6849680091818DFEF769
:102DC00013FEE6E72DE9F041044620680169E26858
:102DD00021F44051114301612169A068E26908436F
:102DE0006169114301432068C26822F4037222F42E
:102DF00014421143C16020684169A26921F4407105
:102E0000114341612068A0F18041B1F588312ED095
:102E1000A0F18041B1F58A3129D0FEF765F98446E9
:102E2000E16900201927254D3226B1F5004F22D047
:102E30006068830F8200ACFB0701FDF7C1F9014612
:102E4000A5FB002040097A42424301EB820106EBD8
:102E50000111A5FB0121490901F0F00202EB00106C
:102E600001F00F01084421688860BDE8F081FEF799
:102E70004BF98446D4E761684A1840EB0003ACFB89
:102E80000701FDF79DF90346A5FB0010410918460F
:102E90000A016FF01803594300EB810006EBC000F4
:102EA000A5FB0010400900F0F80102EB410100F021
:102EB0000700084421688860BDE8F0811F85EB5158
:102EC00017B581B004461346029AA262A38500207A
:102ED0006064222184F84210D4F83CC02149CCF827
:102EE0003C10D4F83CC02049CCF84010D4F83CC089
:102EF0001E49CCF84C10E16B08652068011DE06BA1
:102F0000FDF72CFC38B110206064202084F84200CA
:102F100004B0012010BD206801684068009020695D
:102F200048B120680C3050E8001F41F4807140E83F
:102F30000012002AF5D12068143050E8001F41F03B
:102F4000010140E80012002AF5D12068143050E851
:102F5000001F41F0400140E80012002AF5D104B002
:102F6000002010BDC92B0008592C00087F2B000839
:102F700090F84110212901D0022070478168B1F5F5
:102F8000805F01D1016961B1016A4A1C0262026875
:102F900009785160C18C491E0904090CC1840AD00A
:102FA00013E0016A02680988C1F308015160016AEF
:102FB000891C0162EEE70168CA6822F08002CA60DB
:102FC0000068C16841F04001C16000207047000006
:102FD00008B5144800680068C0F30010F0B100BFE5
:102FE000002000900F480068006800900D480068BD
:102FF0004068009000BF00BF0A48FEF7F6FC0A4890
:1030000000684068C0F1FF000849087001200849C5
:103010000870FF2207490348FEF79EFF0148FEF7AC
:103020001DFD08BD10020020E80200200100002064
:10303000000000201001002000BFFEE702E008C8E9
:10304000121F08C1002AFAD170477047002001E022
:1030500001C1121F002AFBD170470000FDF7CCFE12
:10306000FFF7C8FBFFF796F9FFF74EF9FFF784FA71
:10307000FFF7FCF9FFF718FAFFF79AFAFFF7B4FA2F
:10308000FFF7E6FA00210448FEF740FC9FED030A33
:10309000FFF79AFB00BFFEE7C8000020000087434F
:1030A00000000000000000000102030406070809F8
:1030B00000000000010203040006101600061016AE
:1030C000E030000800000020140000003C30000840
:1030D000F430000814000020940B00004C3000086D
:1030E000000000000024F4000100000010000000B7
:0430F00000000000DC
:040000050800018965
:00000001FF
